{
  "_format": "hh-sol-artifact-1",
  "contractName": "NFTCollection",
  "sourceName": "contracts/NFTCollection.sol",
  "abi": [
    {
      "inputs": [
        {
          "internalType": "string",
          "name": "_name",
          "type": "string"
        },
        {
          "internalType": "string",
          "name": "_symbol",
          "type": "string"
        },
        {
          "internalType": "string",
          "name": "_baseURI_",
          "type": "string"
        }
      ],
      "stateMutability": "nonpayable",
      "type": "constructor"
    },
    {
      "inputs": [],
      "name": "ERC721EnumerableForbiddenBatchMint",
      "type": "error"
    },
    {
      "inputs": [
        {
          "internalType": "address",
          "name": "sender",
          "type": "address"
        },
        {
          "internalType": "uint256",
          "name": "tokenId",
          "type": "uint256"
        },
        {
          "internalType": "address",
          "name": "owner",
          "type": "address"
        }
      ],
      "name": "ERC721IncorrectOwner",
      "type": "error"
    },
    {
      "inputs": [
        {
          "internalType": "address",
          "name": "operator",
          "type": "address"
        },
        {
          "internalType": "uint256",
          "name": "tokenId",
          "type": "uint256"
        }
      ],
      "name": "ERC721InsufficientApproval",
      "type": "error"
    },
    {
      "inputs": [
        {
          "internalType": "address",
          "name": "approver",
          "type": "address"
        }
      ],
      "name": "ERC721InvalidApprover",
      "type": "error"
    },
    {
      "inputs": [
        {
          "internalType": "address",
          "name": "operator",
          "type": "address"
        }
      ],
      "name": "ERC721InvalidOperator",
      "type": "error"
    },
    {
      "inputs": [
        {
          "internalType": "address",
          "name": "owner",
          "type": "address"
        }
      ],
      "name": "ERC721InvalidOwner",
      "type": "error"
    },
    {
      "inputs": [
        {
          "internalType": "address",
          "name": "receiver",
          "type": "address"
        }
      ],
      "name": "ERC721InvalidReceiver",
      "type": "error"
    },
    {
      "inputs": [
        {
          "internalType": "address",
          "name": "sender",
          "type": "address"
        }
      ],
      "name": "ERC721InvalidSender",
      "type": "error"
    },
    {
      "inputs": [
        {
          "internalType": "uint256",
          "name": "tokenId",
          "type": "uint256"
        }
      ],
      "name": "ERC721NonexistentToken",
      "type": "error"
    },
    {
      "inputs": [
        {
          "internalType": "address",
          "name": "owner",
          "type": "address"
        },
        {
          "internalType": "uint256",
          "name": "index",
          "type": "uint256"
        }
      ],
      "name": "ERC721OutOfBoundsIndex",
      "type": "error"
    },
    {
      "anonymous": false,
      "inputs": [
        {
          "indexed": true,
          "internalType": "address",
          "name": "owner",
          "type": "address"
        },
        {
          "indexed": true,
          "internalType": "address",
          "name": "approved",
          "type": "address"
        },
        {
          "indexed": true,
          "internalType": "uint256",
          "name": "tokenId",
          "type": "uint256"
        }
      ],
      "name": "Approval",
      "type": "event"
    },
    {
      "anonymous": false,
      "inputs": [
        {
          "indexed": true,
          "internalType": "address",
          "name": "owner",
          "type": "address"
        },
        {
          "indexed": true,
          "internalType": "address",
          "name": "operator",
          "type": "address"
        },
        {
          "indexed": false,
          "internalType": "bool",
          "name": "approved",
          "type": "bool"
        }
      ],
      "name": "ApprovalForAll",
      "type": "event"
    },
    {
      "anonymous": false,
      "inputs": [
        {
          "indexed": true,
          "internalType": "address",
          "name": "from",
          "type": "address"
        },
        {
          "indexed": true,
          "internalType": "address",
          "name": "to",
          "type": "address"
        },
        {
          "indexed": true,
          "internalType": "uint256",
          "name": "tokenId",
          "type": "uint256"
        }
      ],
      "name": "Transfer",
      "type": "event"
    },
    {
      "inputs": [
        {
          "internalType": "address",
          "name": "to",
          "type": "address"
        },
        {
          "internalType": "uint256",
          "name": "tokenId",
          "type": "uint256"
        }
      ],
      "name": "approve",
      "outputs": [],
      "stateMutability": "nonpayable",
      "type": "function"
    },
    {
      "inputs": [
        {
          "internalType": "address",
          "name": "owner",
          "type": "address"
        }
      ],
      "name": "balanceOf",
      "outputs": [
        {
          "internalType": "uint256",
          "name": "",
          "type": "uint256"
        }
      ],
      "stateMutability": "view",
      "type": "function"
    },
    {
      "inputs": [
        {
          "internalType": "uint256",
          "name": "tokenId",
          "type": "uint256"
        }
      ],
      "name": "getApproved",
      "outputs": [
        {
          "internalType": "address",
          "name": "",
          "type": "address"
        }
      ],
      "stateMutability": "view",
      "type": "function"
    },
    {
      "inputs": [
        {
          "internalType": "address",
          "name": "owner",
          "type": "address"
        },
        {
          "internalType": "address",
          "name": "operator",
          "type": "address"
        }
      ],
      "name": "isApprovedForAll",
      "outputs": [
        {
          "internalType": "bool",
          "name": "",
          "type": "bool"
        }
      ],
      "stateMutability": "view",
      "type": "function"
    },
    {
      "inputs": [
        {
          "internalType": "address",
          "name": "to",
          "type": "address"
        }
      ],
      "name": "mint",
      "outputs": [],
      "stateMutability": "nonpayable",
      "type": "function"
    },
    {
      "inputs": [],
      "name": "name",
      "outputs": [
        {
          "internalType": "string",
          "name": "",
          "type": "string"
        }
      ],
      "stateMutability": "view",
      "type": "function"
    },
    {
      "inputs": [
        {
          "internalType": "uint256",
          "name": "tokenId",
          "type": "uint256"
        }
      ],
      "name": "ownerOf",
      "outputs": [
        {
          "internalType": "address",
          "name": "",
          "type": "address"
        }
      ],
      "stateMutability": "view",
      "type": "function"
    },
    {
      "inputs": [
        {
          "internalType": "address",
          "name": "owner",
          "type": "address"
        },
        {
          "internalType": "uint256",
          "name": "tokenId",
          "type": "uint256"
        },
        {
          "internalType": "address",
          "name": "recipient",
          "type": "address"
        }
      ],
      "name": "replaceNFT",
      "outputs": [],
      "stateMutability": "nonpayable",
      "type": "function"
    },
    {
      "inputs": [
        {
          "internalType": "address",
          "name": "from",
          "type": "address"
        },
        {
          "internalType": "address",
          "name": "to",
          "type": "address"
        },
        {
          "internalType": "uint256",
          "name": "tokenId",
          "type": "uint256"
        }
      ],
      "name": "safeTransferFrom",
      "outputs": [],
      "stateMutability": "nonpayable",
      "type": "function"
    },
    {
      "inputs": [
        {
          "internalType": "address",
          "name": "from",
          "type": "address"
        },
        {
          "internalType": "address",
          "name": "to",
          "type": "address"
        },
        {
          "internalType": "uint256",
          "name": "tokenId",
          "type": "uint256"
        },
        {
          "internalType": "bytes",
          "name": "data",
          "type": "bytes"
        }
      ],
      "name": "safeTransferFrom",
      "outputs": [],
      "stateMutability": "nonpayable",
      "type": "function"
    },
    {
      "inputs": [
        {
          "internalType": "address",
          "name": "operator",
          "type": "address"
        },
        {
          "internalType": "bool",
          "name": "approved",
          "type": "bool"
        }
      ],
      "name": "setApprovalForAll",
      "outputs": [],
      "stateMutability": "nonpayable",
      "type": "function"
    },
    {
      "inputs": [
        {
          "internalType": "string",
          "name": "newBaseURI",
          "type": "string"
        }
      ],
      "name": "setBaseURI",
      "outputs": [],
      "stateMutability": "nonpayable",
      "type": "function"
    },
    {
      "inputs": [
        {
          "internalType": "bytes4",
          "name": "interfaceId",
          "type": "bytes4"
        }
      ],
      "name": "supportsInterface",
      "outputs": [
        {
          "internalType": "bool",
          "name": "",
          "type": "bool"
        }
      ],
      "stateMutability": "view",
      "type": "function"
    },
    {
      "inputs": [],
      "name": "symbol",
      "outputs": [
        {
          "internalType": "string",
          "name": "",
          "type": "string"
        }
      ],
      "stateMutability": "view",
      "type": "function"
    },
    {
      "inputs": [
        {
          "internalType": "uint256",
          "name": "index",
          "type": "uint256"
        }
      ],
      "name": "tokenByIndex",
      "outputs": [
        {
          "internalType": "uint256",
          "name": "",
          "type": "uint256"
        }
      ],
      "stateMutability": "view",
      "type": "function"
    },
    {
      "inputs": [
        {
          "internalType": "address",
          "name": "owner",
          "type": "address"
        },
        {
          "internalType": "uint256",
          "name": "index",
          "type": "uint256"
        }
      ],
      "name": "tokenOfOwnerByIndex",
      "outputs": [
        {
          "internalType": "uint256",
          "name": "",
          "type": "uint256"
        }
      ],
      "stateMutability": "view",
      "type": "function"
    },
    {
      "inputs": [
        {
          "internalType": "uint256",
          "name": "tokenId",
          "type": "uint256"
        }
      ],
      "name": "tokenURI",
      "outputs": [
        {
          "internalType": "string",
          "name": "",
          "type": "string"
        }
      ],
      "stateMutability": "view",
      "type": "function"
    },
    {
      "inputs": [],
      "name": "totalSupply",
      "outputs": [
        {
          "internalType": "uint256",
          "name": "",
          "type": "uint256"
        }
      ],
      "stateMutability": "view",
      "type": "function"
    },
    {
      "inputs": [
        {
          "internalType": "address",
          "name": "from",
          "type": "address"
        },
        {
          "internalType": "address",
          "name": "to",
          "type": "address"
        },
        {
          "internalType": "uint256",
          "name": "tokenId",
          "type": "uint256"
        }
      ],
      "name": "transferFrom",
      "outputs": [],
      "stateMutability": "nonpayable",
      "type": "function"
    }
  ],
  "bytecode": "0x60806040523480156200001157600080fd5b50604051620033a8380380620033a883398181016040528101906200003791906200020d565b828281600090816200004a919062000511565b5080600190816200005c919062000511565b50505080600a908162000070919062000511565b50505050620005f8565b6000604051905090565b600080fd5b600080fd5b600080fd5b600080fd5b6000601f19601f8301169050919050565b7f4e487b7100000000000000000000000000000000000000000000000000000000600052604160045260246000fd5b620000e38262000098565b810181811067ffffffffffffffff82111715620001055762000104620000a9565b5b80604052505050565b60006200011a6200007a565b9050620001288282620000d8565b919050565b600067ffffffffffffffff8211156200014b576200014a620000a9565b5b620001568262000098565b9050602081019050919050565b60005b838110156200018357808201518184015260208101905062000166565b60008484015250505050565b6000620001a6620001a0846200012d565b6200010e565b905082815260208101848484011115620001c557620001c462000093565b5b620001d284828562000163565b509392505050565b600082601f830112620001f257620001f16200008e565b5b8151620002048482602086016200018f565b91505092915050565b60008060006060848603121562000229576200022862000084565b5b600084015167ffffffffffffffff8111156200024a576200024962000089565b5b6200025886828701620001da565b935050602084015167ffffffffffffffff8111156200027c576200027b62000089565b5b6200028a86828701620001da565b925050604084015167ffffffffffffffff811115620002ae57620002ad62000089565b5b620002bc86828701620001da565b9150509250925092565b600081519050919050565b7f4e487b7100000000000000000000000000000000000000000000000000000000600052602260045260246000fd5b600060028204905060018216806200031957607f821691505b6020821081036200032f576200032e620002d1565b5b50919050565b60008190508160005260206000209050919050565b60006020601f8301049050919050565b600082821b905092915050565b600060088302620003997fffffffffffffffffffffffffffffffffffffffffffffffffffffffffffffffff826200035a565b620003a586836200035a565b95508019841693508086168417925050509392505050565b6000819050919050565b6000819050919050565b6000620003f2620003ec620003e684620003bd565b620003c7565b620003bd565b9050919050565b6000819050919050565b6200040e83620003d1565b620004266200041d82620003f9565b84845462000367565b825550505050565b600090565b6200043d6200042e565b6200044a81848462000403565b505050565b5b8181101562000472576200046660008262000433565b60018101905062000450565b5050565b601f821115620004c1576200048b8162000335565b62000496846200034a565b81016020851015620004a6578190505b620004be620004b5856200034a565b8301826200044f565b50505b505050565b600082821c905092915050565b6000620004e660001984600802620004c6565b1980831691505092915050565b6000620005018383620004d3565b9150826002028217905092915050565b6200051c82620002c6565b67ffffffffffffffff811115620005385762000537620000a9565b5b62000544825462000300565b6200055182828562000476565b600060209050601f83116001811462000589576000841562000574578287015190505b620005808582620004f3565b865550620005f0565b601f198416620005998662000335565b60005b82811015620005c3578489015182556001820191506020850194506020810190506200059c565b86831015620005e35784890151620005df601f891682620004d3565b8355505b6001600288020188555050505b505050505050565b612da080620006086000396000f3fe608060405234801561001057600080fd5b50600436106101215760003560e01c806355f804b3116100ad578063a22cb46511610071578063a22cb4651461032c578063a2f4598314610348578063b88d4fde14610364578063c87b56dd14610380578063e985e9c5146103b057610121565b806355f804b3146102765780636352211e146102925780636a627842146102c257806370a08231146102de57806395d89b411461030e57610121565b806318160ddd116100f457806318160ddd146101c057806323b872dd146101de5780632f745c59146101fa57806342842e0e1461022a5780634f6ccce71461024657610121565b806301ffc9a71461012657806306fdde0314610156578063081812fc14610174578063095ea7b3146101a4575b600080fd5b610140600480360381019061013b919061204e565b6103e0565b60405161014d9190612096565b60405180910390f35b61015e61045a565b60405161016b9190612141565b60405180910390f35b61018e60048036038101906101899190612199565b6104ec565b60405161019b9190612207565b60405180910390f35b6101be60048036038101906101b9919061224e565b610508565b005b6101c861051e565b6040516101d5919061229d565b60405180910390f35b6101f860048036038101906101f391906122b8565b61052b565b005b610214600480360381019061020f919061224e565b61062d565b604051610221919061229d565b60405180910390f35b610244600480360381019061023f91906122b8565b6106d6565b005b610260600480360381019061025b9190612199565b6106f6565b60405161026d919061229d565b60405180910390f35b610290600480360381019061028b9190612440565b61076c565b005b6102ac60048036038101906102a79190612199565b61077f565b6040516102b99190612207565b60405180910390f35b6102dc60048036038101906102d79190612489565b610791565b005b6102f860048036038101906102f39190612489565b6107e8565b604051610305919061229d565b60405180910390f35b6103166108a2565b6040516103239190612141565b60405180910390f35b610346600480360381019061034191906124e2565b610934565b005b610362600480360381019061035d9190612522565b61094a565b005b61037e60048036038101906103799190612616565b6109a3565b005b61039a60048036038101906103959190612199565b6109c0565b6040516103a79190612141565b60405180910390f35b6103ca60048036038101906103c59190612699565b610a29565b6040516103d79190612096565b60405180910390f35b60007f780e9d63000000000000000000000000000000000000000000000000000000007bffffffffffffffffffffffffffffffffffffffffffffffffffffffff1916827bffffffffffffffffffffffffffffffffffffffffffffffffffffffff19161480610453575061045282610abd565b5b9050919050565b60606000805461046990612708565b80601f016020809104026020016040519081016040528092919081815260200182805461049590612708565b80156104e25780601f106104b7576101008083540402835291602001916104e2565b820191906000526020600020905b8154815290600101906020018083116104c557829003601f168201915b5050505050905090565b60006104f782610b9f565b5061050182610c27565b9050919050565b61051a8282610515610c64565b610c6c565b5050565b6000600880549050905090565b600073ffffffffffffffffffffffffffffffffffffffff168273ffffffffffffffffffffffffffffffffffffffff160361059d5760006040517f64a0ae920000000000000000000000000000000000000000000000000000000081526004016105949190612207565b60405180910390fd5b60006105b183836105ac610c64565b610c7e565b90508373ffffffffffffffffffffffffffffffffffffffff168173ffffffffffffffffffffffffffffffffffffffff1614610627578382826040517f64283d7b00000000000000000000000000000000000000000000000000000000815260040161061e93929190612739565b60405180910390fd5b50505050565b6000610638836107e8565b821061067d5782826040517fa57d13dc000000000000000000000000000000000000000000000000000000008152600401610674929190612770565b60405180910390fd5b600660008473ffffffffffffffffffffffffffffffffffffffff1673ffffffffffffffffffffffffffffffffffffffff168152602001908152602001600020600083815260200190815260200160002054905092915050565b6106f1838383604051806020016040528060008152506109a3565b505050565b600061070061051e565b8210610746576000826040517fa57d13dc00000000000000000000000000000000000000000000000000000000815260040161073d929190612770565b60405180910390fd5b6008828154811061075a57610759612799565b5b90600052602060002001549050919050565b80600a908161077b9190612974565b5050565b600061078a82610b9f565b9050919050565b6103e861079c61051e565b106107dc576040517f08c379a00000000000000000000000000000000000000000000000000000000081526004016107d390612a92565b60405180910390fd5b6107e581610d9b565b50565b60008073ffffffffffffffffffffffffffffffffffffffff168273ffffffffffffffffffffffffffffffffffffffff160361085b5760006040517f89c62b640000000000000000000000000000000000000000000000000000000081526004016108529190612207565b60405180910390fd5b600360008373ffffffffffffffffffffffffffffffffffffffff1673ffffffffffffffffffffffffffffffffffffffff168152602001908152602001600020549050919050565b6060600180546108b190612708565b80601f01602080910402602001604051908101604052809291908181526020018280546108dd90612708565b801561092a5780601f106108ff5761010080835404028352916020019161092a565b820191906000526020600020905b81548152906001019060200180831161090d57829003601f168201915b5050505050905090565b61094661093f610c64565b8383610dc8565b5050565b6109548383610f37565b610993576040517f08c379a000000000000000000000000000000000000000000000000000000000815260040161098a90612afe565b60405180910390fd5b61099e838284610fc7565b505050565b6109ae84848461052b565b6109ba84848484611134565b50505050565b60606109cb82610b9f565b5060006109d66112eb565b905060008151116109f65760405180602001604052806000815250610a21565b80610a008461137d565b604051602001610a11929190612b5a565b6040516020818303038152906040525b915050919050565b6000600560008473ffffffffffffffffffffffffffffffffffffffff1673ffffffffffffffffffffffffffffffffffffffff16815260200190815260200160002060008373ffffffffffffffffffffffffffffffffffffffff1673ffffffffffffffffffffffffffffffffffffffff16815260200190815260200160002060009054906101000a900460ff16905092915050565b60007f80ac58cd000000000000000000000000000000000000000000000000000000007bffffffffffffffffffffffffffffffffffffffffffffffffffffffff1916827bffffffffffffffffffffffffffffffffffffffffffffffffffffffff19161480610b8857507f5b5e139f000000000000000000000000000000000000000000000000000000007bffffffffffffffffffffffffffffffffffffffffffffffffffffffff1916827bffffffffffffffffffffffffffffffffffffffffffffffffffffffff1916145b80610b985750610b978261144b565b5b9050919050565b600080610bab836114b5565b9050600073ffffffffffffffffffffffffffffffffffffffff168173ffffffffffffffffffffffffffffffffffffffff1603610c1e57826040517f7e273289000000000000000000000000000000000000000000000000000000008152600401610c15919061229d565b60405180910390fd5b80915050919050565b60006004600083815260200190815260200160002060009054906101000a900473ffffffffffffffffffffffffffffffffffffffff169050919050565b600033905090565b610c7983838360016114f2565b505050565b600080610c8c8585856116b7565b9050600073ffffffffffffffffffffffffffffffffffffffff168173ffffffffffffffffffffffffffffffffffffffff1603610cd057610ccb846118d1565b610d0f565b8473ffffffffffffffffffffffffffffffffffffffff168173ffffffffffffffffffffffffffffffffffffffff1614610d0e57610d0d818561191a565b5b5b600073ffffffffffffffffffffffffffffffffffffffff168573ffffffffffffffffffffffffffffffffffffffff1603610d5157610d4c84611a7b565b610d90565b8473ffffffffffffffffffffffffffffffffffffffff168173ffffffffffffffffffffffffffffffffffffffff1614610d8f57610d8e8585611b4c565b5b5b809150509392505050565b6000600b549050600b6000815480929190610db590612bad565b9190505550610dc48282611bd7565b5050565b600073ffffffffffffffffffffffffffffffffffffffff168273ffffffffffffffffffffffffffffffffffffffff1603610e3957816040517f5b08ba18000000000000000000000000000000000000000000000000000000008152600401610e309190612207565b60405180910390fd5b80600560008573ffffffffffffffffffffffffffffffffffffffff1673ffffffffffffffffffffffffffffffffffffffff16815260200190815260200160002060008473ffffffffffffffffffffffffffffffffffffffff1673ffffffffffffffffffffffffffffffffffffffff16815260200190815260200160002060006101000a81548160ff0219169083151502179055508173ffffffffffffffffffffffffffffffffffffffff168373ffffffffffffffffffffffffffffffffffffffff167f17307eab39ab6107e8899845ad3d59bd9653f200f220920489ca2b5937696c3183604051610f2a9190612096565b60405180910390a3505050565b6000610f428261077f565b73ffffffffffffffffffffffffffffffffffffffff168373ffffffffffffffffffffffffffffffffffffffff161480610fae57508273ffffffffffffffffffffffffffffffffffffffff16610f96836104ec565b73ffffffffffffffffffffffffffffffffffffffff16145b80610fbf5750610fbe8384610a29565b5b905092915050565b600073ffffffffffffffffffffffffffffffffffffffff168273ffffffffffffffffffffffffffffffffffffffff16036110395760006040517f64a0ae920000000000000000000000000000000000000000000000000000000081526004016110309190612207565b60405180910390fd5b600061104783836000610c7e565b9050600073ffffffffffffffffffffffffffffffffffffffff168173ffffffffffffffffffffffffffffffffffffffff16036110ba57816040517f7e2732890000000000000000000000000000000000000000000000000000000081526004016110b1919061229d565b60405180910390fd5b8373ffffffffffffffffffffffffffffffffffffffff168173ffffffffffffffffffffffffffffffffffffffff161461112e578382826040517f64283d7b00000000000000000000000000000000000000000000000000000000815260040161112593929190612739565b60405180910390fd5b50505050565b60008373ffffffffffffffffffffffffffffffffffffffff163b11156112e5578273ffffffffffffffffffffffffffffffffffffffff1663150b7a02611178610c64565b8685856040518563ffffffff1660e01b815260040161119a9493929190612c4a565b6020604051808303816000875af19250505080156111d657506040513d601f19601f820116820180604052508101906111d39190612cab565b60015b61125a573d8060008114611206576040519150601f19603f3d011682016040523d82523d6000602084013e61120b565b606091505b50600081510361125257836040517f64a0ae920000000000000000000000000000000000000000000000000000000081526004016112499190612207565b60405180910390fd5b805181602001fd5b63150b7a0260e01b7bffffffffffffffffffffffffffffffffffffffffffffffffffffffff1916817bffffffffffffffffffffffffffffffffffffffffffffffffffffffff1916146112e357836040517f64a0ae920000000000000000000000000000000000000000000000000000000081526004016112da9190612207565b60405180910390fd5b505b50505050565b6060600a80546112fa90612708565b80601f016020809104026020016040519081016040528092919081815260200182805461132690612708565b80156113735780601f1061134857610100808354040283529160200191611373565b820191906000526020600020905b81548152906001019060200180831161135657829003601f168201915b5050505050905090565b60606000600161138c84611bf5565b01905060008167ffffffffffffffff8111156113ab576113aa612315565b5b6040519080825280601f01601f1916602001820160405280156113dd5781602001600182028036833780820191505090505b509050600082602001820190505b600115611440578080600190039150507f3031323334353637383961626364656600000000000000000000000000000000600a86061a8153600a858161143457611433612cd8565b5b049450600085036113eb575b819350505050919050565b60007f01ffc9a7000000000000000000000000000000000000000000000000000000007bffffffffffffffffffffffffffffffffffffffffffffffffffffffff1916827bffffffffffffffffffffffffffffffffffffffffffffffffffffffff1916149050919050565b60006002600083815260200190815260200160002060009054906101000a900473ffffffffffffffffffffffffffffffffffffffff169050919050565b808061152b5750600073ffffffffffffffffffffffffffffffffffffffff168273ffffffffffffffffffffffffffffffffffffffff1614155b1561165f57600061153b84610b9f565b9050600073ffffffffffffffffffffffffffffffffffffffff168373ffffffffffffffffffffffffffffffffffffffff16141580156115a657508273ffffffffffffffffffffffffffffffffffffffff168173ffffffffffffffffffffffffffffffffffffffff1614155b80156115b957506115b78184610a29565b155b156115fb57826040517fa9fbf51f0000000000000000000000000000000000000000000000000000000081526004016115f29190612207565b60405180910390fd5b811561165d57838573ffffffffffffffffffffffffffffffffffffffff168273ffffffffffffffffffffffffffffffffffffffff167f8c5be1e5ebec7d5bd14f71427d1e84f3dd0314c0f7b2291e5b200ac8c7c3b92560405160405180910390a45b505b836004600085815260200190815260200160002060006101000a81548173ffffffffffffffffffffffffffffffffffffffff021916908373ffffffffffffffffffffffffffffffffffffffff16021790555050505050565b6000806116c3846114b5565b9050600073ffffffffffffffffffffffffffffffffffffffff168373ffffffffffffffffffffffffffffffffffffffff161461170557611704818486611d48565b5b600073ffffffffffffffffffffffffffffffffffffffff168173ffffffffffffffffffffffffffffffffffffffff1614611796576117476000856000806114f2565b6001600360008373ffffffffffffffffffffffffffffffffffffffff1673ffffffffffffffffffffffffffffffffffffffff168152602001908152602001600020600082825403925050819055505b600073ffffffffffffffffffffffffffffffffffffffff168573ffffffffffffffffffffffffffffffffffffffff1614611819576001600360008773ffffffffffffffffffffffffffffffffffffffff1673ffffffffffffffffffffffffffffffffffffffff168152602001908152602001600020600082825401925050819055505b846002600086815260200190815260200160002060006101000a81548173ffffffffffffffffffffffffffffffffffffffff021916908373ffffffffffffffffffffffffffffffffffffffff160217905550838573ffffffffffffffffffffffffffffffffffffffff168273ffffffffffffffffffffffffffffffffffffffff167fddf252ad1be2c89b69c2b068fc378daa952ba7f163c4a11628f55a4df523b3ef60405160405180910390a4809150509392505050565b6008805490506009600083815260200190815260200160002081905550600881908060018154018082558091505060019003906000526020600020016000909190919091505550565b6000611925836107e8565b9050600060076000848152602001908152602001600020549050818114611a0a576000600660008673ffffffffffffffffffffffffffffffffffffffff1673ffffffffffffffffffffffffffffffffffffffff168152602001908152602001600020600084815260200190815260200160002054905080600660008773ffffffffffffffffffffffffffffffffffffffff1673ffffffffffffffffffffffffffffffffffffffff168152602001908152602001600020600084815260200190815260200160002081905550816007600083815260200190815260200160002081905550505b6007600084815260200190815260200160002060009055600660008573ffffffffffffffffffffffffffffffffffffffff1673ffffffffffffffffffffffffffffffffffffffff16815260200190815260200160002060008381526020019081526020016000206000905550505050565b60006001600880549050611a8f9190612d07565b9050600060096000848152602001908152602001600020549050600060088381548110611abf57611abe612799565b5b906000526020600020015490508060088381548110611ae157611ae0612799565b5b906000526020600020018190555081600960008381526020019081526020016000208190555060096000858152602001908152602001600020600090556008805480611b3057611b2f612d3b565b5b6001900381819060005260206000200160009055905550505050565b60006001611b59846107e8565b611b639190612d07565b905081600660008573ffffffffffffffffffffffffffffffffffffffff1673ffffffffffffffffffffffffffffffffffffffff168152602001908152602001600020600083815260200190815260200160002081905550806007600084815260200190815260200160002081905550505050565b611bf1828260405180602001604052806000815250611e0c565b5050565b600080600090507a184f03e93ff9f4daa797ed6e38ed64bf6a1f0100000000000000008310611c53577a184f03e93ff9f4daa797ed6e38ed64bf6a1f0100000000000000008381611c4957611c48612cd8565b5b0492506040810190505b6d04ee2d6d415b85acef81000000008310611c90576d04ee2d6d415b85acef81000000008381611c8657611c85612cd8565b5b0492506020810190505b662386f26fc100008310611cbf57662386f26fc100008381611cb557611cb4612cd8565b5b0492506010810190505b6305f5e1008310611ce8576305f5e1008381611cde57611cdd612cd8565b5b0492506008810190505b6127108310611d0d576127108381611d0357611d02612cd8565b5b0492506004810190505b60648310611d305760648381611d2657611d25612cd8565b5b0492506002810190505b600a8310611d3f576001810190505b80915050919050565b611d53838383611e28565b611e0757600073ffffffffffffffffffffffffffffffffffffffff168373ffffffffffffffffffffffffffffffffffffffff1603611dc857806040517f7e273289000000000000000000000000000000000000000000000000000000008152600401611dbf919061229d565b60405180910390fd5b81816040517f177e802f000000000000000000000000000000000000000000000000000000008152600401611dfe929190612770565b60405180910390fd5b505050565b611e168383611ee9565b611e236000848484611134565b505050565b60008073ffffffffffffffffffffffffffffffffffffffff168373ffffffffffffffffffffffffffffffffffffffff1614158015611ee057508273ffffffffffffffffffffffffffffffffffffffff168473ffffffffffffffffffffffffffffffffffffffff161480611ea15750611ea08484610a29565b5b80611edf57508273ffffffffffffffffffffffffffffffffffffffff16611ec783610c27565b73ffffffffffffffffffffffffffffffffffffffff16145b5b90509392505050565b600073ffffffffffffffffffffffffffffffffffffffff168273ffffffffffffffffffffffffffffffffffffffff1603611f5b5760006040517f64a0ae92000000000000000000000000000000000000000000000000000000008152600401611f529190612207565b60405180910390fd5b6000611f6983836000610c7e565b9050600073ffffffffffffffffffffffffffffffffffffffff168173ffffffffffffffffffffffffffffffffffffffff1614611fdd5760006040517f73c6ac6e000000000000000000000000000000000000000000000000000000008152600401611fd49190612207565b60405180910390fd5b505050565b6000604051905090565b600080fd5b600080fd5b60007fffffffff0000000000000000000000000000000000000000000000000000000082169050919050565b61202b81611ff6565b811461203657600080fd5b50565b60008135905061204881612022565b92915050565b60006020828403121561206457612063611fec565b5b600061207284828501612039565b91505092915050565b60008115159050919050565b6120908161207b565b82525050565b60006020820190506120ab6000830184612087565b92915050565b600081519050919050565b600082825260208201905092915050565b60005b838110156120eb5780820151818401526020810190506120d0565b60008484015250505050565b6000601f19601f8301169050919050565b6000612113826120b1565b61211d81856120bc565b935061212d8185602086016120cd565b612136816120f7565b840191505092915050565b6000602082019050818103600083015261215b8184612108565b905092915050565b6000819050919050565b61217681612163565b811461218157600080fd5b50565b6000813590506121938161216d565b92915050565b6000602082840312156121af576121ae611fec565b5b60006121bd84828501612184565b91505092915050565b600073ffffffffffffffffffffffffffffffffffffffff82169050919050565b60006121f1826121c6565b9050919050565b612201816121e6565b82525050565b600060208201905061221c60008301846121f8565b92915050565b61222b816121e6565b811461223657600080fd5b50565b60008135905061224881612222565b92915050565b6000806040838503121561226557612264611fec565b5b600061227385828601612239565b925050602061228485828601612184565b9150509250929050565b61229781612163565b82525050565b60006020820190506122b2600083018461228e565b92915050565b6000806000606084860312156122d1576122d0611fec565b5b60006122df86828701612239565b93505060206122f086828701612239565b925050604061230186828701612184565b9150509250925092565b600080fd5b600080fd5b7f4e487b7100000000000000000000000000000000000000000000000000000000600052604160045260246000fd5b61234d826120f7565b810181811067ffffffffffffffff8211171561236c5761236b612315565b5b80604052505050565b600061237f611fe2565b905061238b8282612344565b919050565b600067ffffffffffffffff8211156123ab576123aa612315565b5b6123b4826120f7565b9050602081019050919050565b82818337600083830152505050565b60006123e36123de84612390565b612375565b9050828152602081018484840111156123ff576123fe612310565b5b61240a8482856123c1565b509392505050565b600082601f8301126124275761242661230b565b5b81356124378482602086016123d0565b91505092915050565b60006020828403121561245657612455611fec565b5b600082013567ffffffffffffffff81111561247457612473611ff1565b5b61248084828501612412565b91505092915050565b60006020828403121561249f5761249e611fec565b5b60006124ad84828501612239565b91505092915050565b6124bf8161207b565b81146124ca57600080fd5b50565b6000813590506124dc816124b6565b92915050565b600080604083850312156124f9576124f8611fec565b5b600061250785828601612239565b9250506020612518858286016124cd565b9150509250929050565b60008060006060848603121561253b5761253a611fec565b5b600061254986828701612239565b935050602061255a86828701612184565b925050604061256b86828701612239565b9150509250925092565b600067ffffffffffffffff8211156125905761258f612315565b5b612599826120f7565b9050602081019050919050565b60006125b96125b484612575565b612375565b9050828152602081018484840111156125d5576125d4612310565b5b6125e08482856123c1565b509392505050565b600082601f8301126125fd576125fc61230b565b5b813561260d8482602086016125a6565b91505092915050565b600080600080608085870312156126305761262f611fec565b5b600061263e87828801612239565b945050602061264f87828801612239565b935050604061266087828801612184565b925050606085013567ffffffffffffffff81111561268157612680611ff1565b5b61268d878288016125e8565b91505092959194509250565b600080604083850312156126b0576126af611fec565b5b60006126be85828601612239565b92505060206126cf85828601612239565b9150509250929050565b7f4e487b7100000000000000000000000000000000000000000000000000000000600052602260045260246000fd5b6000600282049050600182168061272057607f821691505b602082108103612733576127326126d9565b5b50919050565b600060608201905061274e60008301866121f8565b61275b602083018561228e565b61276860408301846121f8565b949350505050565b600060408201905061278560008301856121f8565b612792602083018461228e565b9392505050565b7f4e487b7100000000000000000000000000000000000000000000000000000000600052603260045260246000fd5b60008190508160005260206000209050919050565b60006020601f8301049050919050565b600082821b905092915050565b60006008830261282a7fffffffffffffffffffffffffffffffffffffffffffffffffffffffffffffffff826127ed565b61283486836127ed565b95508019841693508086168417925050509392505050565b6000819050919050565b600061287161286c61286784612163565b61284c565b612163565b9050919050565b6000819050919050565b61288b83612856565b61289f61289782612878565b8484546127fa565b825550505050565b600090565b6128b46128a7565b6128bf818484612882565b505050565b5b818110156128e3576128d86000826128ac565b6001810190506128c5565b5050565b601f821115612928576128f9816127c8565b612902846127dd565b81016020851015612911578190505b61292561291d856127dd565b8301826128c4565b50505b505050565b600082821c905092915050565b600061294b6000198460080261292d565b1980831691505092915050565b6000612964838361293a565b9150826002028217905092915050565b61297d826120b1565b67ffffffffffffffff81111561299657612995612315565b5b6129a08254612708565b6129ab8282856128e7565b600060209050601f8311600181146129de57600084156129cc578287015190505b6129d68582612958565b865550612a3e565b601f1984166129ec866127c8565b60005b82811015612a14578489015182556001820191506020850194506020810190506129ef565b86831015612a315784890151612a2d601f89168261293a565b8355505b6001600288020188555050505b505050505050565b7f4d617820737570706c7920726561636865640000000000000000000000000000600082015250565b6000612a7c6012836120bc565b9150612a8782612a46565b602082019050919050565b60006020820190508181036000830152612aab81612a6f565b9050919050565b7f4e6f7420617070726f76656420746f207472616e736665720000000000000000600082015250565b6000612ae86018836120bc565b9150612af382612ab2565b602082019050919050565b60006020820190508181036000830152612b1781612adb565b9050919050565b600081905092915050565b6000612b34826120b1565b612b3e8185612b1e565b9350612b4e8185602086016120cd565b80840191505092915050565b6000612b668285612b29565b9150612b728284612b29565b91508190509392505050565b7f4e487b7100000000000000000000000000000000000000000000000000000000600052601160045260246000fd5b6000612bb882612163565b91507fffffffffffffffffffffffffffffffffffffffffffffffffffffffffffffffff8203612bea57612be9612b7e565b5b600182019050919050565b600081519050919050565b600082825260208201905092915050565b6000612c1c82612bf5565b612c268185612c00565b9350612c368185602086016120cd565b612c3f816120f7565b840191505092915050565b6000608082019050612c5f60008301876121f8565b612c6c60208301866121f8565b612c79604083018561228e565b8181036060830152612c8b8184612c11565b905095945050505050565b600081519050612ca581612022565b92915050565b600060208284031215612cc157612cc0611fec565b5b6000612ccf84828501612c96565b91505092915050565b7f4e487b7100000000000000000000000000000000000000000000000000000000600052601260045260246000fd5b6000612d1282612163565b9150612d1d83612163565b9250828203905081811115612d3557612d34612b7e565b5b92915050565b7f4e487b7100000000000000000000000000000000000000000000000000000000600052603160045260246000fdfea264697066735822122065298e1be9ae5eb965a61c386fbad9a8d6ca328861728e748336c3c059836d8564736f6c63430008140033",
  "linkReferences": {},
  "deployedLinkReferences": {}
}