{
  "_format": "hh-sol-artifact-1",
  "contractName": "MyNFT",
  "sourceName": "contracts/MyNFT.sol",
  "abi": [
    {
      "inputs": [],
      "stateMutability": "nonpayable",
      "type": "constructor"
    },
    {
      "inputs": [],
      "name": "ERC721EnumerableForbiddenBatchMint",
      "type": "error"
    },
    {
      "inputs": [
        {
          "internalType": "address",
          "name": "sender",
          "type": "address"
        },
        {
          "internalType": "uint256",
          "name": "tokenId",
          "type": "uint256"
        },
        {
          "internalType": "address",
          "name": "owner",
          "type": "address"
        }
      ],
      "name": "ERC721IncorrectOwner",
      "type": "error"
    },
    {
      "inputs": [
        {
          "internalType": "address",
          "name": "operator",
          "type": "address"
        },
        {
          "internalType": "uint256",
          "name": "tokenId",
          "type": "uint256"
        }
      ],
      "name": "ERC721InsufficientApproval",
      "type": "error"
    },
    {
      "inputs": [
        {
          "internalType": "address",
          "name": "approver",
          "type": "address"
        }
      ],
      "name": "ERC721InvalidApprover",
      "type": "error"
    },
    {
      "inputs": [
        {
          "internalType": "address",
          "name": "operator",
          "type": "address"
        }
      ],
      "name": "ERC721InvalidOperator",
      "type": "error"
    },
    {
      "inputs": [
        {
          "internalType": "address",
          "name": "owner",
          "type": "address"
        }
      ],
      "name": "ERC721InvalidOwner",
      "type": "error"
    },
    {
      "inputs": [
        {
          "internalType": "address",
          "name": "receiver",
          "type": "address"
        }
      ],
      "name": "ERC721InvalidReceiver",
      "type": "error"
    },
    {
      "inputs": [
        {
          "internalType": "address",
          "name": "sender",
          "type": "address"
        }
      ],
      "name": "ERC721InvalidSender",
      "type": "error"
    },
    {
      "inputs": [
        {
          "internalType": "uint256",
          "name": "tokenId",
          "type": "uint256"
        }
      ],
      "name": "ERC721NonexistentToken",
      "type": "error"
    },
    {
      "inputs": [
        {
          "internalType": "address",
          "name": "owner",
          "type": "address"
        },
        {
          "internalType": "uint256",
          "name": "index",
          "type": "uint256"
        }
      ],
      "name": "ERC721OutOfBoundsIndex",
      "type": "error"
    },
    {
      "anonymous": false,
      "inputs": [
        {
          "indexed": true,
          "internalType": "address",
          "name": "owner",
          "type": "address"
        },
        {
          "indexed": true,
          "internalType": "address",
          "name": "approved",
          "type": "address"
        },
        {
          "indexed": true,
          "internalType": "uint256",
          "name": "tokenId",
          "type": "uint256"
        }
      ],
      "name": "Approval",
      "type": "event"
    },
    {
      "anonymous": false,
      "inputs": [
        {
          "indexed": true,
          "internalType": "address",
          "name": "owner",
          "type": "address"
        },
        {
          "indexed": true,
          "internalType": "address",
          "name": "operator",
          "type": "address"
        },
        {
          "indexed": false,
          "internalType": "bool",
          "name": "approved",
          "type": "bool"
        }
      ],
      "name": "ApprovalForAll",
      "type": "event"
    },
    {
      "anonymous": false,
      "inputs": [
        {
          "indexed": true,
          "internalType": "address",
          "name": "from",
          "type": "address"
        },
        {
          "indexed": true,
          "internalType": "address",
          "name": "to",
          "type": "address"
        },
        {
          "indexed": true,
          "internalType": "uint256",
          "name": "tokenId",
          "type": "uint256"
        }
      ],
      "name": "Transfer",
      "type": "event"
    },
    {
      "stateMutability": "payable",
      "type": "fallback"
    },
    {
      "inputs": [
        {
          "internalType": "address",
          "name": "to",
          "type": "address"
        },
        {
          "internalType": "uint256",
          "name": "tokenId",
          "type": "uint256"
        }
      ],
      "name": "approve",
      "outputs": [],
      "stateMutability": "nonpayable",
      "type": "function"
    },
    {
      "inputs": [
        {
          "internalType": "address",
          "name": "owner",
          "type": "address"
        }
      ],
      "name": "balanceOf",
      "outputs": [
        {
          "internalType": "uint256",
          "name": "",
          "type": "uint256"
        }
      ],
      "stateMutability": "view",
      "type": "function"
    },
    {
      "inputs": [
        {
          "internalType": "uint256",
          "name": "tokenId",
          "type": "uint256"
        }
      ],
      "name": "getApproved",
      "outputs": [
        {
          "internalType": "address",
          "name": "",
          "type": "address"
        }
      ],
      "stateMutability": "view",
      "type": "function"
    },
    {
      "inputs": [
        {
          "internalType": "address",
          "name": "owner",
          "type": "address"
        },
        {
          "internalType": "address",
          "name": "operator",
          "type": "address"
        }
      ],
      "name": "isApprovedForAll",
      "outputs": [
        {
          "internalType": "bool",
          "name": "",
          "type": "bool"
        }
      ],
      "stateMutability": "view",
      "type": "function"
    },
    {
      "inputs": [
        {
          "internalType": "address",
          "name": "to",
          "type": "address"
        },
        {
          "internalType": "uint256",
          "name": "tokenId",
          "type": "uint256"
        }
      ],
      "name": "mint",
      "outputs": [],
      "stateMutability": "nonpayable",
      "type": "function"
    },
    {
      "inputs": [],
      "name": "name",
      "outputs": [
        {
          "internalType": "string",
          "name": "",
          "type": "string"
        }
      ],
      "stateMutability": "view",
      "type": "function"
    },
    {
      "inputs": [
        {
          "internalType": "uint256",
          "name": "tokenId",
          "type": "uint256"
        }
      ],
      "name": "ownerOf",
      "outputs": [
        {
          "internalType": "address",
          "name": "",
          "type": "address"
        }
      ],
      "stateMutability": "view",
      "type": "function"
    },
    {
      "inputs": [
        {
          "internalType": "address",
          "name": "oldOwner",
          "type": "address"
        },
        {
          "internalType": "address",
          "name": "newOwner",
          "type": "address"
        },
        {
          "internalType": "uint256",
          "name": "oldTokenId",
          "type": "uint256"
        },
        {
          "internalType": "uint256",
          "name": "newTokenId",
          "type": "uint256"
        }
      ],
      "name": "replaceNFT",
      "outputs": [],
      "stateMutability": "nonpayable",
      "type": "function"
    },
    {
      "inputs": [
        {
          "internalType": "address",
          "name": "from",
          "type": "address"
        },
        {
          "internalType": "address",
          "name": "to",
          "type": "address"
        },
        {
          "internalType": "uint256",
          "name": "tokenId",
          "type": "uint256"
        }
      ],
      "name": "safeTransferFrom",
      "outputs": [],
      "stateMutability": "nonpayable",
      "type": "function"
    },
    {
      "inputs": [
        {
          "internalType": "address",
          "name": "from",
          "type": "address"
        },
        {
          "internalType": "address",
          "name": "to",
          "type": "address"
        },
        {
          "internalType": "uint256",
          "name": "tokenId",
          "type": "uint256"
        },
        {
          "internalType": "bytes",
          "name": "data",
          "type": "bytes"
        }
      ],
      "name": "safeTransferFrom",
      "outputs": [],
      "stateMutability": "nonpayable",
      "type": "function"
    },
    {
      "inputs": [
        {
          "internalType": "address",
          "name": "operator",
          "type": "address"
        },
        {
          "internalType": "bool",
          "name": "approved",
          "type": "bool"
        }
      ],
      "name": "setApprovalForAll",
      "outputs": [],
      "stateMutability": "nonpayable",
      "type": "function"
    },
    {
      "inputs": [
        {
          "internalType": "bytes4",
          "name": "interfaceId",
          "type": "bytes4"
        }
      ],
      "name": "supportsInterface",
      "outputs": [
        {
          "internalType": "bool",
          "name": "",
          "type": "bool"
        }
      ],
      "stateMutability": "view",
      "type": "function"
    },
    {
      "inputs": [],
      "name": "symbol",
      "outputs": [
        {
          "internalType": "string",
          "name": "",
          "type": "string"
        }
      ],
      "stateMutability": "view",
      "type": "function"
    },
    {
      "inputs": [
        {
          "internalType": "uint256",
          "name": "index",
          "type": "uint256"
        }
      ],
      "name": "tokenByIndex",
      "outputs": [
        {
          "internalType": "uint256",
          "name": "",
          "type": "uint256"
        }
      ],
      "stateMutability": "view",
      "type": "function"
    },
    {
      "inputs": [
        {
          "internalType": "address",
          "name": "owner",
          "type": "address"
        },
        {
          "internalType": "uint256",
          "name": "index",
          "type": "uint256"
        }
      ],
      "name": "tokenOfOwnerByIndex",
      "outputs": [
        {
          "internalType": "uint256",
          "name": "",
          "type": "uint256"
        }
      ],
      "stateMutability": "view",
      "type": "function"
    },
    {
      "inputs": [
        {
          "internalType": "uint256",
          "name": "tokenId",
          "type": "uint256"
        }
      ],
      "name": "tokenURI",
      "outputs": [
        {
          "internalType": "string",
          "name": "",
          "type": "string"
        }
      ],
      "stateMutability": "view",
      "type": "function"
    },
    {
      "inputs": [],
      "name": "totalReceivedEther",
      "outputs": [
        {
          "internalType": "uint256",
          "name": "",
          "type": "uint256"
        }
      ],
      "stateMutability": "view",
      "type": "function"
    },
    {
      "inputs": [],
      "name": "totalSupply",
      "outputs": [
        {
          "internalType": "uint256",
          "name": "",
          "type": "uint256"
        }
      ],
      "stateMutability": "view",
      "type": "function"
    },
    {
      "inputs": [
        {
          "internalType": "address",
          "name": "from",
          "type": "address"
        },
        {
          "internalType": "address",
          "name": "to",
          "type": "address"
        },
        {
          "internalType": "uint256",
          "name": "tokenId",
          "type": "uint256"
        }
      ],
      "name": "transferFrom",
      "outputs": [],
      "stateMutability": "nonpayable",
      "type": "function"
    },
    {
      "stateMutability": "payable",
      "type": "receive"
    }
  ],
  "bytecode": "0x60806040523480156200001157600080fd5b506040518060400160405280601181526020017f4d79204e465420436f6c6c656374696f6e0000000000000000000000000000008152506040518060400160405280600481526020017f4d4e46540000000000000000000000000000000000000000000000000000000081525081600090816200008f919062000324565b508060019081620000a1919062000324565b5050506200040b565b600081519050919050565b7f4e487b7100000000000000000000000000000000000000000000000000000000600052604160045260246000fd5b7f4e487b7100000000000000000000000000000000000000000000000000000000600052602260045260246000fd5b600060028204905060018216806200012c57607f821691505b602082108103620001425762000141620000e4565b5b50919050565b60008190508160005260206000209050919050565b60006020601f8301049050919050565b600082821b905092915050565b600060088302620001ac7fffffffffffffffffffffffffffffffffffffffffffffffffffffffffffffffff826200016d565b620001b886836200016d565b95508019841693508086168417925050509392505050565b6000819050919050565b6000819050919050565b600062000205620001ff620001f984620001d0565b620001da565b620001d0565b9050919050565b6000819050919050565b6200022183620001e4565b6200023962000230826200020c565b8484546200017a565b825550505050565b600090565b6200025062000241565b6200025d81848462000216565b505050565b5b8181101562000285576200027960008262000246565b60018101905062000263565b5050565b601f821115620002d4576200029e8162000148565b620002a9846200015d565b81016020851015620002b9578190505b620002d1620002c8856200015d565b83018262000262565b50505b505050565b600082821c905092915050565b6000620002f960001984600802620002d9565b1980831691505092915050565b6000620003148383620002e6565b9150826002028217905092915050565b6200032f82620000aa565b67ffffffffffffffff8111156200034b576200034a620000b5565b5b62000357825462000113565b6200036482828562000289565b600060209050601f8311600181146200039c576000841562000387578287015190505b62000393858262000306565b86555062000403565b601f198416620003ac8662000148565b60005b82811015620003d657848901518255600182019150602085019450602081019050620003af565b86831015620003f65784890151620003f2601f891682620002e6565b8355505b6001600288020188555050505b505050505050565b612a42806200041b6000396000f3fe6080604052600436106101185760003560e01c806342842e0e116100a057806395d89b411161006457806395d89b411461040d578063a22cb46514610438578063b88d4fde14610461578063c87b56dd1461048a578063e985e9c5146104c757610137565b806342842e0e146103045780634f6ccce71461032d5780636352211e1461036a57806370a08231146103a757806375dc15a1146103e457610137565b806318160ddd116100e757806318160ddd1461021f57806323b872dd1461024a5780632f745c591461027357806333a104ec146102b057806340c10f19146102db57610137565b806301ffc9a71461015157806306fdde031461018e578063081812fc146101b9578063095ea7b3146101f657610137565b366101375734600a600082825461012f9190612091565b925050819055005b34600a60008282546101499190612091565b925050819055005b34801561015d57600080fd5b5061017860048036038101906101739190612131565b610504565b6040516101859190612179565b60405180910390f35b34801561019a57600080fd5b506101a361057e565b6040516101b09190612224565b60405180910390f35b3480156101c557600080fd5b506101e060048036038101906101db9190612272565b610610565b6040516101ed91906122e0565b60405180910390f35b34801561020257600080fd5b5061021d60048036038101906102189190612327565b61062c565b005b34801561022b57600080fd5b50610234610642565b6040516102419190612376565b60405180910390f35b34801561025657600080fd5b50610271600480360381019061026c9190612391565b61064f565b005b34801561027f57600080fd5b5061029a60048036038101906102959190612327565b610751565b6040516102a79190612376565b60405180910390f35b3480156102bc57600080fd5b506102c56107fa565b6040516102d29190612376565b60405180910390f35b3480156102e757600080fd5b5061030260048036038101906102fd9190612327565b610800565b005b34801561031057600080fd5b5061032b60048036038101906103269190612391565b61080e565b005b34801561033957600080fd5b50610354600480360381019061034f9190612272565b61082e565b6040516103619190612376565b60405180910390f35b34801561037657600080fd5b50610391600480360381019061038c9190612272565b6108a4565b60405161039e91906122e0565b60405180910390f35b3480156103b357600080fd5b506103ce60048036038101906103c991906123e4565b6108b6565b6040516103db9190612376565b60405180910390f35b3480156103f057600080fd5b5061040b60048036038101906104069190612411565b610970565b005b34801561041957600080fd5b50610422610a23565b60405161042f9190612224565b60405180910390f35b34801561044457600080fd5b5061045f600480360381019061045a91906124a4565b610ab5565b005b34801561046d57600080fd5b5061048860048036038101906104839190612619565b610acb565b005b34801561049657600080fd5b506104b160048036038101906104ac9190612272565b610ae8565b6040516104be9190612224565b60405180910390f35b3480156104d357600080fd5b506104ee60048036038101906104e9919061269c565b610b51565b6040516104fb9190612179565b60405180910390f35b60007f780e9d63000000000000000000000000000000000000000000000000000000007bffffffffffffffffffffffffffffffffffffffffffffffffffffffff1916827bffffffffffffffffffffffffffffffffffffffffffffffffffffffff19161480610577575061057682610be5565b5b9050919050565b60606000805461058d9061270b565b80601f01602080910402602001604051908101604052809291908181526020018280546105b99061270b565b80156106065780601f106105db57610100808354040283529160200191610606565b820191906000526020600020905b8154815290600101906020018083116105e957829003601f168201915b5050505050905090565b600061061b82610cc7565b5061062582610d4f565b9050919050565b61063e8282610639610d8c565b610d94565b5050565b6000600880549050905090565b600073ffffffffffffffffffffffffffffffffffffffff168273ffffffffffffffffffffffffffffffffffffffff16036106c15760006040517f64a0ae920000000000000000000000000000000000000000000000000000000081526004016106b891906122e0565b60405180910390fd5b60006106d583836106d0610d8c565b610da6565b90508373ffffffffffffffffffffffffffffffffffffffff168173ffffffffffffffffffffffffffffffffffffffff161461074b578382826040517f64283d7b0000000000000000000000000000000000000000000000000000000081526004016107429392919061273c565b60405180910390fd5b50505050565b600061075c836108b6565b82106107a15782826040517fa57d13dc000000000000000000000000000000000000000000000000000000008152600401610798929190612773565b60405180910390fd5b600660008473ffffffffffffffffffffffffffffffffffffffff1673ffffffffffffffffffffffffffffffffffffffff168152602001908152602001600020600083815260200190815260200160002054905092915050565b600a5481565b61080a8282610ec3565b5050565b61082983838360405180602001604052806000815250610acb565b505050565b6000610838610642565b821061087e576000826040517fa57d13dc000000000000000000000000000000000000000000000000000000008152600401610875929190612773565b60405180910390fd5b600882815481106108925761089161279c565b5b90600052602060002001549050919050565b60006108af82610cc7565b9050919050565b60008073ffffffffffffffffffffffffffffffffffffffff168273ffffffffffffffffffffffffffffffffffffffff16036109295760006040517f89c62b6400000000000000000000000000000000000000000000000000000000815260040161092091906122e0565b60405180910390fd5b600360008373ffffffffffffffffffffffffffffffffffffffff1673ffffffffffffffffffffffffffffffffffffffff168152602001908152602001600020549050919050565b3373ffffffffffffffffffffffffffffffffffffffff16610990836108a4565b73ffffffffffffffffffffffffffffffffffffffff1614806109c057506109bf6109b9836108a4565b33610b51565b5b6109ff576040517f08c379a00000000000000000000000000000000000000000000000000000000081526004016109f690612817565b60405180910390fd5b610a0a848484610ee1565b610a138261104e565b610a1d8382610ec3565b50505050565b606060018054610a329061270b565b80601f0160208091040260200160405190810160405280929190818152602001828054610a5e9061270b565b8015610aab5780601f10610a8057610100808354040283529160200191610aab565b820191906000526020600020905b815481529060010190602001808311610a8e57829003601f168201915b5050505050905090565b610ac7610ac0610d8c565b83836110d4565b5050565b610ad684848461064f565b610ae284848484611243565b50505050565b6060610af382610cc7565b506000610afe6113fa565b90506000815111610b1e5760405180602001604052806000815250610b49565b80610b2884611411565b604051602001610b39929190612873565b6040516020818303038152906040525b915050919050565b6000600560008473ffffffffffffffffffffffffffffffffffffffff1673ffffffffffffffffffffffffffffffffffffffff16815260200190815260200160002060008373ffffffffffffffffffffffffffffffffffffffff1673ffffffffffffffffffffffffffffffffffffffff16815260200190815260200160002060009054906101000a900460ff16905092915050565b60007f80ac58cd000000000000000000000000000000000000000000000000000000007bffffffffffffffffffffffffffffffffffffffffffffffffffffffff1916827bffffffffffffffffffffffffffffffffffffffffffffffffffffffff19161480610cb057507f5b5e139f000000000000000000000000000000000000000000000000000000007bffffffffffffffffffffffffffffffffffffffffffffffffffffffff1916827bffffffffffffffffffffffffffffffffffffffffffffffffffffffff1916145b80610cc05750610cbf826114df565b5b9050919050565b600080610cd383611549565b9050600073ffffffffffffffffffffffffffffffffffffffff168173ffffffffffffffffffffffffffffffffffffffff1603610d4657826040517f7e273289000000000000000000000000000000000000000000000000000000008152600401610d3d9190612376565b60405180910390fd5b80915050919050565b60006004600083815260200190815260200160002060009054906101000a900473ffffffffffffffffffffffffffffffffffffffff169050919050565b600033905090565b610da18383836001611586565b505050565b600080610db485858561174b565b9050600073ffffffffffffffffffffffffffffffffffffffff168173ffffffffffffffffffffffffffffffffffffffff1603610df857610df384611965565b610e37565b8473ffffffffffffffffffffffffffffffffffffffff168173ffffffffffffffffffffffffffffffffffffffff1614610e3657610e3581856119ae565b5b5b600073ffffffffffffffffffffffffffffffffffffffff168573ffffffffffffffffffffffffffffffffffffffff1603610e7957610e7484611b0f565b610eb8565b8473ffffffffffffffffffffffffffffffffffffffff168173ffffffffffffffffffffffffffffffffffffffff1614610eb757610eb68585611be0565b5b5b809150509392505050565b610edd828260405180602001604052806000815250611c6b565b5050565b600073ffffffffffffffffffffffffffffffffffffffff168273ffffffffffffffffffffffffffffffffffffffff1603610f535760006040517f64a0ae92000000000000000000000000000000000000000000000000000000008152600401610f4a91906122e0565b60405180910390fd5b6000610f6183836000610da6565b9050600073ffffffffffffffffffffffffffffffffffffffff168173ffffffffffffffffffffffffffffffffffffffff1603610fd457816040517f7e273289000000000000000000000000000000000000000000000000000000008152600401610fcb9190612376565b60405180910390fd5b8373ffffffffffffffffffffffffffffffffffffffff168173ffffffffffffffffffffffffffffffffffffffff1614611048578382826040517f64283d7b00000000000000000000000000000000000000000000000000000000815260040161103f9392919061273c565b60405180910390fd5b50505050565b600061105d6000836000610da6565b9050600073ffffffffffffffffffffffffffffffffffffffff168173ffffffffffffffffffffffffffffffffffffffff16036110d057816040517f7e2732890000000000000000000000000000000000000000000000000000000081526004016110c79190612376565b60405180910390fd5b5050565b600073ffffffffffffffffffffffffffffffffffffffff168273ffffffffffffffffffffffffffffffffffffffff160361114557816040517f5b08ba1800000000000000000000000000000000000000000000000000000000815260040161113c91906122e0565b60405180910390fd5b80600560008573ffffffffffffffffffffffffffffffffffffffff1673ffffffffffffffffffffffffffffffffffffffff16815260200190815260200160002060008473ffffffffffffffffffffffffffffffffffffffff1673ffffffffffffffffffffffffffffffffffffffff16815260200190815260200160002060006101000a81548160ff0219169083151502179055508173ffffffffffffffffffffffffffffffffffffffff168373ffffffffffffffffffffffffffffffffffffffff167f17307eab39ab6107e8899845ad3d59bd9653f200f220920489ca2b5937696c31836040516112369190612179565b60405180910390a3505050565b60008373ffffffffffffffffffffffffffffffffffffffff163b11156113f4578273ffffffffffffffffffffffffffffffffffffffff1663150b7a02611287610d8c565b8685856040518563ffffffff1660e01b81526004016112a994939291906128ec565b6020604051808303816000875af19250505080156112e557506040513d601f19601f820116820180604052508101906112e2919061294d565b60015b611369573d8060008114611315576040519150601f19603f3d011682016040523d82523d6000602084013e61131a565b606091505b50600081510361136157836040517f64a0ae9200000000000000000000000000000000000000000000000000000000815260040161135891906122e0565b60405180910390fd5b805181602001fd5b63150b7a0260e01b7bffffffffffffffffffffffffffffffffffffffffffffffffffffffff1916817bffffffffffffffffffffffffffffffffffffffffffffffffffffffff1916146113f257836040517f64a0ae920000000000000000000000000000000000000000000000000000000081526004016113e991906122e0565b60405180910390fd5b505b50505050565b606060405180602001604052806000815250905090565b60606000600161142084611c87565b01905060008167ffffffffffffffff81111561143f5761143e6124ee565b5b6040519080825280601f01601f1916602001820160405280156114715781602001600182028036833780820191505090505b509050600082602001820190505b6001156114d4578080600190039150507f3031323334353637383961626364656600000000000000000000000000000000600a86061a8153600a85816114c8576114c761297a565b5b0494506000850361147f575b819350505050919050565b60007f01ffc9a7000000000000000000000000000000000000000000000000000000007bffffffffffffffffffffffffffffffffffffffffffffffffffffffff1916827bffffffffffffffffffffffffffffffffffffffffffffffffffffffff1916149050919050565b60006002600083815260200190815260200160002060009054906101000a900473ffffffffffffffffffffffffffffffffffffffff169050919050565b80806115bf5750600073ffffffffffffffffffffffffffffffffffffffff168273ffffffffffffffffffffffffffffffffffffffff1614155b156116f35760006115cf84610cc7565b9050600073ffffffffffffffffffffffffffffffffffffffff168373ffffffffffffffffffffffffffffffffffffffff161415801561163a57508273ffffffffffffffffffffffffffffffffffffffff168173ffffffffffffffffffffffffffffffffffffffff1614155b801561164d575061164b8184610b51565b155b1561168f57826040517fa9fbf51f00000000000000000000000000000000000000000000000000000000815260040161168691906122e0565b60405180910390fd5b81156116f157838573ffffffffffffffffffffffffffffffffffffffff168273ffffffffffffffffffffffffffffffffffffffff167f8c5be1e5ebec7d5bd14f71427d1e84f3dd0314c0f7b2291e5b200ac8c7c3b92560405160405180910390a45b505b836004600085815260200190815260200160002060006101000a81548173ffffffffffffffffffffffffffffffffffffffff021916908373ffffffffffffffffffffffffffffffffffffffff16021790555050505050565b60008061175784611549565b9050600073ffffffffffffffffffffffffffffffffffffffff168373ffffffffffffffffffffffffffffffffffffffff161461179957611798818486611dda565b5b600073ffffffffffffffffffffffffffffffffffffffff168173ffffffffffffffffffffffffffffffffffffffff161461182a576117db600085600080611586565b6001600360008373ffffffffffffffffffffffffffffffffffffffff1673ffffffffffffffffffffffffffffffffffffffff168152602001908152602001600020600082825403925050819055505b600073ffffffffffffffffffffffffffffffffffffffff168573ffffffffffffffffffffffffffffffffffffffff16146118ad576001600360008773ffffffffffffffffffffffffffffffffffffffff1673ffffffffffffffffffffffffffffffffffffffff168152602001908152602001600020600082825401925050819055505b846002600086815260200190815260200160002060006101000a81548173ffffffffffffffffffffffffffffffffffffffff021916908373ffffffffffffffffffffffffffffffffffffffff160217905550838573ffffffffffffffffffffffffffffffffffffffff168273ffffffffffffffffffffffffffffffffffffffff167fddf252ad1be2c89b69c2b068fc378daa952ba7f163c4a11628f55a4df523b3ef60405160405180910390a4809150509392505050565b6008805490506009600083815260200190815260200160002081905550600881908060018154018082558091505060019003906000526020600020016000909190919091505550565b60006119b9836108b6565b9050600060076000848152602001908152602001600020549050818114611a9e576000600660008673ffffffffffffffffffffffffffffffffffffffff1673ffffffffffffffffffffffffffffffffffffffff168152602001908152602001600020600084815260200190815260200160002054905080600660008773ffffffffffffffffffffffffffffffffffffffff1673ffffffffffffffffffffffffffffffffffffffff168152602001908152602001600020600084815260200190815260200160002081905550816007600083815260200190815260200160002081905550505b6007600084815260200190815260200160002060009055600660008573ffffffffffffffffffffffffffffffffffffffff1673ffffffffffffffffffffffffffffffffffffffff16815260200190815260200160002060008381526020019081526020016000206000905550505050565b60006001600880549050611b2391906129a9565b9050600060096000848152602001908152602001600020549050600060088381548110611b5357611b5261279c565b5b906000526020600020015490508060088381548110611b7557611b7461279c565b5b906000526020600020018190555081600960008381526020019081526020016000208190555060096000858152602001908152602001600020600090556008805480611bc457611bc36129dd565b5b6001900381819060005260206000200160009055905550505050565b60006001611bed846108b6565b611bf791906129a9565b905081600660008573ffffffffffffffffffffffffffffffffffffffff1673ffffffffffffffffffffffffffffffffffffffff168152602001908152602001600020600083815260200190815260200160002081905550806007600084815260200190815260200160002081905550505050565b611c758383611e9e565b611c826000848484611243565b505050565b600080600090507a184f03e93ff9f4daa797ed6e38ed64bf6a1f0100000000000000008310611ce5577a184f03e93ff9f4daa797ed6e38ed64bf6a1f0100000000000000008381611cdb57611cda61297a565b5b0492506040810190505b6d04ee2d6d415b85acef81000000008310611d22576d04ee2d6d415b85acef81000000008381611d1857611d1761297a565b5b0492506020810190505b662386f26fc100008310611d5157662386f26fc100008381611d4757611d4661297a565b5b0492506010810190505b6305f5e1008310611d7a576305f5e1008381611d7057611d6f61297a565b5b0492506008810190505b6127108310611d9f576127108381611d9557611d9461297a565b5b0492506004810190505b60648310611dc25760648381611db857611db761297a565b5b0492506002810190505b600a8310611dd1576001810190505b80915050919050565b611de5838383611f97565b611e9957600073ffffffffffffffffffffffffffffffffffffffff168373ffffffffffffffffffffffffffffffffffffffff1603611e5a57806040517f7e273289000000000000000000000000000000000000000000000000000000008152600401611e519190612376565b60405180910390fd5b81816040517f177e802f000000000000000000000000000000000000000000000000000000008152600401611e90929190612773565b60405180910390fd5b505050565b600073ffffffffffffffffffffffffffffffffffffffff168273ffffffffffffffffffffffffffffffffffffffff1603611f105760006040517f64a0ae92000000000000000000000000000000000000000000000000000000008152600401611f0791906122e0565b60405180910390fd5b6000611f1e83836000610da6565b9050600073ffffffffffffffffffffffffffffffffffffffff168173ffffffffffffffffffffffffffffffffffffffff1614611f925760006040517f73c6ac6e000000000000000000000000000000000000000000000000000000008152600401611f8991906122e0565b60405180910390fd5b505050565b60008073ffffffffffffffffffffffffffffffffffffffff168373ffffffffffffffffffffffffffffffffffffffff161415801561204f57508273ffffffffffffffffffffffffffffffffffffffff168473ffffffffffffffffffffffffffffffffffffffff161480612010575061200f8484610b51565b5b8061204e57508273ffffffffffffffffffffffffffffffffffffffff1661203683610d4f565b73ffffffffffffffffffffffffffffffffffffffff16145b5b90509392505050565b6000819050919050565b7f4e487b7100000000000000000000000000000000000000000000000000000000600052601160045260246000fd5b600061209c82612058565b91506120a783612058565b92508282019050808211156120bf576120be612062565b5b92915050565b6000604051905090565b600080fd5b600080fd5b60007fffffffff0000000000000000000000000000000000000000000000000000000082169050919050565b61210e816120d9565b811461211957600080fd5b50565b60008135905061212b81612105565b92915050565b600060208284031215612147576121466120cf565b5b60006121558482850161211c565b91505092915050565b60008115159050919050565b6121738161215e565b82525050565b600060208201905061218e600083018461216a565b92915050565b600081519050919050565b600082825260208201905092915050565b60005b838110156121ce5780820151818401526020810190506121b3565b60008484015250505050565b6000601f19601f8301169050919050565b60006121f682612194565b612200818561219f565b93506122108185602086016121b0565b612219816121da565b840191505092915050565b6000602082019050818103600083015261223e81846121eb565b905092915050565b61224f81612058565b811461225a57600080fd5b50565b60008135905061226c81612246565b92915050565b600060208284031215612288576122876120cf565b5b60006122968482850161225d565b91505092915050565b600073ffffffffffffffffffffffffffffffffffffffff82169050919050565b60006122ca8261229f565b9050919050565b6122da816122bf565b82525050565b60006020820190506122f560008301846122d1565b92915050565b612304816122bf565b811461230f57600080fd5b50565b600081359050612321816122fb565b92915050565b6000806040838503121561233e5761233d6120cf565b5b600061234c85828601612312565b925050602061235d8582860161225d565b9150509250929050565b61237081612058565b82525050565b600060208201905061238b6000830184612367565b92915050565b6000806000606084860312156123aa576123a96120cf565b5b60006123b886828701612312565b93505060206123c986828701612312565b92505060406123da8682870161225d565b9150509250925092565b6000602082840312156123fa576123f96120cf565b5b600061240884828501612312565b91505092915050565b6000806000806080858703121561242b5761242a6120cf565b5b600061243987828801612312565b945050602061244a87828801612312565b935050604061245b8782880161225d565b925050606061246c8782880161225d565b91505092959194509250565b6124818161215e565b811461248c57600080fd5b50565b60008135905061249e81612478565b92915050565b600080604083850312156124bb576124ba6120cf565b5b60006124c985828601612312565b92505060206124da8582860161248f565b9150509250929050565b600080fd5b600080fd5b7f4e487b7100000000000000000000000000000000000000000000000000000000600052604160045260246000fd5b612526826121da565b810181811067ffffffffffffffff82111715612545576125446124ee565b5b80604052505050565b60006125586120c5565b9050612564828261251d565b919050565b600067ffffffffffffffff821115612584576125836124ee565b5b61258d826121da565b9050602081019050919050565b82818337600083830152505050565b60006125bc6125b784612569565b61254e565b9050828152602081018484840111156125d8576125d76124e9565b5b6125e384828561259a565b509392505050565b600082601f830112612600576125ff6124e4565b5b81356126108482602086016125a9565b91505092915050565b60008060008060808587031215612633576126326120cf565b5b600061264187828801612312565b945050602061265287828801612312565b93505060406126638782880161225d565b925050606085013567ffffffffffffffff811115612684576126836120d4565b5b612690878288016125eb565b91505092959194509250565b600080604083850312156126b3576126b26120cf565b5b60006126c185828601612312565b92505060206126d285828601612312565b9150509250929050565b7f4e487b7100000000000000000000000000000000000000000000000000000000600052602260045260246000fd5b6000600282049050600182168061272357607f821691505b602082108103612736576127356126dc565b5b50919050565b600060608201905061275160008301866122d1565b61275e6020830185612367565b61276b60408301846122d1565b949350505050565b600060408201905061278860008301856122d1565b6127956020830184612367565b9392505050565b7f4e487b7100000000000000000000000000000000000000000000000000000000600052603260045260246000fd5b7f4e6f7420617070726f76656420746f207472616e736665720000000000000000600082015250565b600061280160188361219f565b915061280c826127cb565b602082019050919050565b60006020820190508181036000830152612830816127f4565b9050919050565b600081905092915050565b600061284d82612194565b6128578185612837565b93506128678185602086016121b0565b80840191505092915050565b600061287f8285612842565b915061288b8284612842565b91508190509392505050565b600081519050919050565b600082825260208201905092915050565b60006128be82612897565b6128c881856128a2565b93506128d88185602086016121b0565b6128e1816121da565b840191505092915050565b600060808201905061290160008301876122d1565b61290e60208301866122d1565b61291b6040830185612367565b818103606083015261292d81846128b3565b905095945050505050565b60008151905061294781612105565b92915050565b600060208284031215612963576129626120cf565b5b600061297184828501612938565b91505092915050565b7f4e487b7100000000000000000000000000000000000000000000000000000000600052601260045260246000fd5b60006129b482612058565b91506129bf83612058565b92508282039050818111156129d7576129d6612062565b5b92915050565b7f4e487b7100000000000000000000000000000000000000000000000000000000600052603160045260246000fdfea26469706673582212202db14e586e2289c6df9ccec08912a7315a2a4b4a9e3f85e70a0900caad3f972664736f6c63430008140033",
  "linkReferences": {},
  "deployedLinkReferences": {}
}